:020000040800F2
:10000000880E002081010008551D0008C11B000852
:1000100000000000000000000000000000000000E0
:10002000000000000000000000000000591D000852
:100030000000000000000000571D00085B1D0008C4
:1000400093010008000000009301000893010008DC
:100050009301000893010008930100089301000830
:10006000000000001D07000893010008930100082C
:1000700093010008930100089301000800000000AC
:100080009301000800000000000000009301000838
:10009000000000009301000893010008930100088C
:1000A00093010008930100089301000893010008E0
:1000B00093010008000000000000000000000000A4
:1000C00000F002F800F030F80CA030C8083824180E
:1000D0002D18A246671EAB4654465D46AC4201D180
:1000E00000F022F87E460F3E0FCCB6460126334282
:1000F00000D0FB1AA246AB4633431847B424000095
:10010000D42400000023002400250026103A01D347
:1001100078C1FBD8520700D330C100D50B607047BF
:100120001FB51FBD10B510BD00F09AFA1146FFF7BC
:10013000F7FF02F095F900F0B2FA03B4FFF7F2FF0F
:1001400003BC00F0B9FA000070B505460C4616462F
:1001500002E00FCC0FC5103E102EFAD2082E02D3AB
:1001600003CC03C5083E042E07D301CC01C5361FBE
:1001700003E021782970641C6D1C761EF9D270BDD5
:100180000748804707480047FEE7FEE7FEE7FEE72F
:10019000FEE7FEE704480549054A064B70470000A4
:1001A000CB1D0008C100000888080020880E002030
:1001B000880A0020880A0020431A70B593421BD297
:1001C0008918801804E0491E401E0B78521E0370E7
:1001D0009307F8D106E01039103878C9103978C083
:1001E0001038103A102AF6D203E0091F001F0B68DE
:1001F0000360121FF9D570BDFFF7A6FF70BDF8B5FB
:10020000064614460843800707D0751AA54219D23E
:100210000819102D13D2311907E03046FFF7CCFF33
:10022000F8BD401E491E02780A70641EF9D2F8BD5E
:10023000471B2A46394600F0D2F9641B3846A542CE
:10024000F6D3011B2246304600F0C9F9F8BD01E0A3
:1002500004C0091F0429FBD28B0701D50280801C32
:10026000C90700D00270704700290BD0C30702D025
:100270000270401C491E022904D3830702D5028064
:10028000801C891EE3E70022EEE70022DFE7002260
:1002900003098B422CD3030A8B4211D300239C46C3
:1002A0004EE003460B433CD4002243088B4231D33B
:1002B00003098B421CD3030A8B4201D394463FE0CF
:1002C000C3098B4201D3CB01C01A524183098B422F
:1002D00001D38B01C01A524143098B4201D34B0118
:1002E000C01A524103098B4201D30B01C01A52417B
:1002F000C3088B4201D3CB00C01A524183088B4202
:1003000001D38B00C01A524143088B4201D34B00EA
:10031000C01A5241411A00D201465241104670475C
:100320005DE0CA0F00D04942031000D34042534061
:1003300000229C4603098B422DD3030A8B4212D321
:10034000FC22890112BA030A8B420CD38901921153
:100350008B4208D3890192118B4204D389013AD090
:10036000921100E08909C3098B4201D3CB01C01A65
:10037000524183098B4201D38B01C01A5241430978
:100380008B4201D34B01C01A524103098B4201D366
:100390000B01C01A5241C3088B4201D3CB00C01AD3
:1003A000524183088B4201D38B00C01A5241D9D2EB
:1003B00043088B4201D34B00C01A5241411A00D26C
:1003C0000146634652415B10104601D34042002B68
:1003D00000D54942704763465B1000D3404201B5E7
:1003E0000020C046C04602BD7047704770470000FD
:1003F000F0B5FF252D04C609C209FF2704462E408B
:100400000137CB093E4348402A402B400746002A8B
:100410006BD0002B69D0AA4267D0AB4265D00028D0
:1004200000DA32460125ED0529432C43090220025A
:10043000090AD21A4B0C7F24E31A434C000A7C446D
:10044000E35C7D242404121914145B00A218884272
:1004500001D3521C00E0400049420C465C43241189
:100460005C43DB016415E318040A5C43C502200DFC
:100470000C4644436419250A5D432303EC0C0D46E6
:10048000654300030019EB184C42A34201D35B18EB
:10049000401CD4052018002B07D05B00C91804D3DA
:1004A000401C002901D1400840003F2189048A42B4
:1004B00009D3002A08DC1106090F04D003214907DB
:1004C0004018C00FC007F0BD012241001206891874
:1004D0007F2252069142F6D205214907C84201D532
:1004E0009010F0BDFF20C005F0BD002F00DA3246AD
:1004F0001648AA4207D2AB4205D21902090E17D0FC
:10050000F80FC007F0BDFF2563002D06AB42F9D8F8
:100510004900A942F6D8AB4201D1A942F2D0A94282
:1005200001D1002101E061004908D0050843F0BD78
:100530001102090EFBD0FF200243D005F0BD0A4690
:100540000146104654E700002E2100000000C07F45
:100550000102C21504D00123DB071943002A0ADB7C
:100560009E239A1A02D40846D0407047FF224100C9
:100570001206914201D900207047C017C04370474E
:100580001F22030C02D10F2200041CD0030E01D144
:100590000002083A030F01D10001121F830F01D19D
:1005A0008000921E002801DB4000521ED205511827
:1005B000021251181922904004D3491C002801D17D
:1005C0004908490008467047C10FC90700D040429A
:1005D000012292071143D3E701218907D0E7F8B53B
:1005E000042A2CD3830712D00B78491C0370401CBB
:1005F000521E83070BD00B78491C0370401C521EFF
:10060000830704D00B78491C0370401C521E8B07D3
:100610009B0F05D0C91ADF002023DE1B08C90AE0A2
:10062000FFF792FDF8BD1D4608C9FD401C46B440C9
:100630002C4310C0121F042AF5D2F308C91A521E07
:10064000F0D40B78491C0370401C521EEAD40B787E
:10065000491C0370401C012AE4D409780170F8BDDC
:10066000754600F025F8AE46050069465346C008B9
:10067000C000854618B020B5FFF78CFD60BC002790
:100680004908B6460026C0C5C0C5C0C5C0C5C0C55E
:10069000C0C5C0C5C0C5403D49008D46704710B5B6
:1006A0000446C046C0462046FFF747FD10BD000087
:1006B000004870472408002001491820ABBEFEE71F
:1006C00026000200704770B58C180578401C6B0737
:1006D0005B0F01D10378401C2A1106D10278401C1F
:1006E00003E00678401C0E70491C5B1EF9D12B07F5
:1006F00005D40023521E0DD40B70491CFAE7037871
:10070000401CCB1A921C03E01D780D70491C5B1C29
:10071000521EF9D5A142D8D3002070BD10B50248B1
:1007200000F006F910BD00008801002010B5044655
:10073000006C09498008800040186064207814210A
:100740000838FFF7A4FD04498031A164C106C90E31
:1007500001208840E06410BD000802400179084B88
:100760008906890E8A00D2180265054A4432491E5C
:1007700042658A07920F0121914081657047000010
:10078000FC080240F0B5846CC56C6560046D002CFB
:1007900002D0446D856D65600B4C6568066C1C2746
:1007A0003E400127B7403D4365600468636083684D
:1007B000102B036803D099600068C260F0BD9A6096
:1007C0000068C160F0BD00000000024072B6FEE7A4
:1007D0000448006AC0B2AA2802D0CC2800D0BB20AE
:1007E00070470000002002400248006A02490840A9
:1007F000704700000020024000604F0730B5044CF5
:10080000236AFF25284383430B431343236230BDF0
:1008100000200240F8B5044600F008FB0127064618
:100820003F04124D06E0601C04D000F0FFFA801B6C
:10083000A04213D228693842F5D128690C490840F2
:100840000C4929610CD00C4948600120F8BD601C9E
:1008500006D000F0EBFA801BA04201D30320F8BDC4
:1008600028694003F3D40020F8BD000000200240B6
:10087000FA830000FB8300000808002000B587B061
:10088000684600F05BF90698C10110D50121090600
:100890008843069000F008FA00F0F2F9684600F08C
:1008A00071F900F0CFF900F0D7F900F0B7F907B00F
:1008B00000BD0000F8B5002402462032517902291B
:1008C00003D00421C16301242DE001680B680E25CB
:1008D000AB430B6001680B685B085B000B60416C0D
:1008E0000B68FF250135AB430B6010494D68066C62
:1008F0001C231E4001231F46B7403D434D60816CC1
:10090000C56C4D60016D002906D00E681D02AE4316
:100910000E60416D856D4D60537100211171816BC9
:10092000002900D088472046F8BD000000000240A2
:10093000F0B42C490C6802681368056C1C273D4014
:100940000426AE40264211D05E070FD513689B06E1
:1009500003D4146804239C4314604B68046C042281
:100960003C40A24013434B60016B1CE00227AF40A8
:10097000064627402036002F19D09F0717D5136849
:100980009B0605D413680A24A343136001227271E5
:100990004B68046C1C2214400222A24013434B609B
:1009A00000213171C16A00291AD0F0BC084708271C
:1009B000AF40274214D01B0712D513680E24A3435F
:1009C00013604B68046C1C22144001221546A5409C
:1009D0002B434B60C263727100213171416BE2E7BE
:1009E000F0BC70470000024070B504003FD02548BD
:1009F000256814212818FFF74AFC80002064022093
:100A000026462036707128681F4908402860E16832
:100A1000A06862690843216911430843A16908433A
:100A2000E1690843216A084321680A6810430860A5
:100A30002046FFF77BFE0121A0688903002588423C
:100A400000D165602079616C8006800E0860A06C22
:100A5000E16C41606068401E03280AD82046FFF719
:100A60007DFE206D0560606DA16D416004E0012098
:100A700070BD25656565A565E563012070713571FB
:100A8000002070BDF8FFFDBF0F80FFFFF8B50446E2
:100A90008C4620300179002501290BD001260671F2
:100AA00041790027012907D08021E16307710125E1
:100AB0002846F8BD0220F8BD02214171E763206895
:100AC000016849084900016061462046FFF75AFE67
:100AD000206B00282068016801D00E2205E0042266
:100AE00091430160206801680A2211430160606C33
:100AF0000168CA03074902D502680A430260206DF3
:100B0000002802D002680A4302602068016831436D
:100B10000160CDE70001000070B5044600F086F9E1
:100B20000546601C02D004480078241800F07EF9C5
:100B3000401BA042FAD370BD2C01002010B5044622
:100B40000720206061680D48012910D0016BC9069B
:100B5000C90EA160006BC002C00EE060FFF738FE56
:100B60002061FFF741FEA0610548606110BDC16AC8
:100B7000C906C90EA160C06AEDE70000002002406E
:100B800000604F07F8B5234E0446307801281BD08B
:100B9000012030700027776020781F4DC00707D0F4
:100BA0006268A168E068012A10D000040843286345
:100BB00020684107890F03290CD081070CD5FFF766
:100BC00013FE014622690EE00220F8BD000408432E
:100BD000E862EDE7226904E0400706D5FFF7F8FD7B
:100BE0000246A1696069FFF709FE7D20C000FFF79A
:100BF00011FE00280BD16869012464042043686158
:100C00007D20C000FFF706FE6969A1436961377066
:100C1000F8BD0000080800200020024010B57D202B
:100C20000124C000FFF7F6FD054841698204114325
:100C300041614069002800DA0024204610BD000010
:100C400000200240034841690122D206114341615C
:100C5000012070470020024010B57D200124C00013
:100C6000FFF7D8FD054841694204114341614069DD
:100C7000400000D50024204610BD000000200240A6
:100C8000064901204A69520007D5054ACA60054A4B
:100C9000CA604969490000D4002070470020024022
:100CA0003B2A19087F6E5D4C064900204A69002ADC
:100CB00007DA054A8A60054A8A604969002900DA2C
:100CC000012070470020024023016745AB89EFCD2A
:100CD000F0B5002303249AE02A4601259D402A40CE
:100CE0007ED00E79B607B60F012E01D0022E16D196
:100CF00086682746B4465E00B646B7406646BE43A1
:100D0000B446CF687646B740664637438760466844
:100D1000AE430D79ED06ED0F9D40354345600D79ED
:100D2000ED43AD0708D0C5685F002646BE40B54319
:100D30008E68BE402E43C6600D79AD07AD0F022D03
:100D40000ED1DD08AD002D18AC462D6A5E07F60EFB
:100D50000F27B740BD430F69B7402F4365462F6249
:100D600005685F002646BE40B5430E79B607B60F4C
:100D7000BE402E4306604D68AD03AD0F46D09E08C1
:100D8000264DB6007519AC462D6E9E07F60E0F2740
:100D9000B740BD4305273F07B84201D100270FE008
:100DA0001F4FB84201D101270AE01E4FB84201D1BE
:100DB000022705E01C4FB84201D1032700E00527B8
:100DC000B7402F43154D664637662D684E689543EC
:100DD000F60200D51543114F3D607D68954300E054
:100DE00014E04E68B60200D515437D600B4D80358A
:100DF0006E684F689643BF0300D516436E602E6839
:100E00004F689643FF0300D516432E605B1C0A68AB
:100E10001546DA4000D05FE7F0BD00000018024040
:100E20000004005000080050000C00500148806889
:100E3000704700002C010020024881680278891860
:100E4000816070472C01002010B50848002401681B
:100E5000821511430160032000F00AF8002801D038
:100E6000012401E000F028F8204610BD00200240D7
:100E700070B50F4E002431780546002915D07D202D
:100E8000C000FFF704FA01460A480068FFF7FFF9BF
:100E900000F03CFB002808D1042D06D20022294690
:100EA000401E00F02BF8756000E00124204670BD64
:100EB0002C0100203801002008B5094801680122F2
:100EC0001143016000681040009005484038C26B33
:100ED00001040A43C263C06B0840009008BD0000D3
:100EE00040100240002805DBC106C90E01208840E1
:100EF000014908607047000000E100E010B501F012
:100F00008DFA10BD10B50F4C216803225202914397
:100F100001432160C11FFF39FA390ED10A48062169
:100F2000006848430949FFF7B2F9401C02E0002875
:100F300005D0401E61694905F9D4002010BD032089
:100F400010BD0000007000403801002040420F003A
:100F5000F8B50F46060043D04D4D28684007400FB6
:100F6000B84213D22868C008C00038432860FFF791
:100F70005DFF044605E0FFF759FF011B454881422C
:100F800061D828684007400FB842F4D13068424C1D
:100F900081070DD5400704D5A06807210903084340
:100FA000A060A0680F2109028843B1680843A060CF
:100FB0003078C00732D0706801280AD002280BD0E0
:100FC00000280FD03449403103280ED0C969890761
:100FD00004E02168890301E021688901002906DB1A
:100FE0000120F8BD21684905F8E7096AEFE7A16823
:100FF000C908C9000143A160FFF718FF009006E08F
:10100000FFF714FF0099411A224881421BD8A068BB
:10101000382108407168C9008842F1D1286840072A
:10102000400FB84217D91A480168C908C9003943A6
:101030000160FFF7FBFE054607E0FFF7F7FE411BE7
:101040001448814201D90320F8BD114800684007C7
:10105000400FB842F1D13078400706D5A06807218B
:1010600009038843F1680843A06000F01DF8A168F7
:101070003C2289091140094A515CC906C90EC84081
:101080000749086007480068FFF7F2FEF8BD000056
:1010900000200240881300000010024030250008A4
:1010A000380100203001002010B5204CA068204AF3
:1010B0008006400F16D0A0688006410F501001290D
:1010C0000FD0A1688906490F022912D0A0688006B6
:1010D000400F042823D0A0688006400F032821D0A9
:1010E000002010BD206801218004400F814010467F
:1010F00012E0E1688B07E1689B0F4906490F491C24
:10110000032B00D01046FFF7C2F8E1684904490EEE
:101110004843E168490F491CFFF7B9F810BD0120A9
:10112000C00310BD7D20000210BD00000010024071
:101130000024F400F8B504007ED020783827C007DA
:10114000E94D002846D0A868E96838408907890F2A
:10115000102802D008280BD001E0032908D0012074
:101160006268000482420AD129680143296015E0BF
:10117000286880032ED560680028DDD02AE005238A
:1011800001211B0489049A422A6802D10A432A6079
:10119000EAE782432A60286888432860606800285C
:1011A0000CD0FFF743FE064604E0FFF73FFE801B2E
:1011B000642873D828688003F7D50BE0FFF736FE64
:1011C000064604E0FFF732FE801B6428F1D8286849
:1011D0008003F7D42078800769D5A868E96838408B
:1011E0008A070721920FC902102802D0002813D0C5
:1011F00001E0022A10D0E068002846D02868884321
:101200002169084328602868FF21013108432860CC
:10121000FFF70CFE06462CE02A68520502D5E2686C
:10122000002A89D06A687F231B029A4363691B02E4
:101230001A436A60002800E08DE00ED128688843D8
:10124000216908432860286801218004400F8140FB
:10125000A648FFF71CF8A6490860A6480068FFF7F3
:1012600007FE002877D122E0FFF7E0FD801B02286F
:101270009FD828684005F7D568687F210902884310
:10128000616909020843686011E02968FF200130A4
:1012900081432960FFF7CAFD064605E098E0FFF7A5
:1012A000C5FD801B022884D828684005F7D4207823
:1012B000914E00072ED5A8688006400F03280AD05B
:1012C000A0690028306A16D0012108433062FFF778
:1012D000ADFD07460BE0306A80071BD5A0690028EA
:1012E0009FD017E0FFF7A2FDC01B022870D8306A1C
:1012F0008007F7D50EE0400840003062FFF796FD0A
:10130000074604E0FFF792FDC01B022860D8306A50
:101310008007F7D4207840076CD5A868002780069E
:10132000400F042818D0E86BC00008D4E96B0120F6
:1013300000070143E963E96B0140012700916F4811
:101340000168C90519D40168821511430160FFF7CE
:101350006DFD00900DE083E0F06980074AD5A0683C
:1013600000287DD046E0FFF761FD0099401A022871
:101370002ED862480068C005F5D5A168012910D0B3
:1013800004200529F16911D049084900F161F1698A
:101390008143F161A068002816D0FFF747FD009057
:1013A0000EE0F06901210843F061F3E70143F161C8
:1013B000F7E7FFF73BFD0099411A5148814265D894
:1013C000F0698007F5D50EE0FFF730FD009007E0EB
:1013D0005CE0FFF72BFD0099411A4948814255D83E
:1013E000F0698007F5D4002F04D0E96B01200007D5
:1013F0008143E963E069002873D0A9688906490F31
:1014000002294DD0012636060228286805D0B043AF
:101410002860FFF70BFD04463AE0B0432860FFF771
:1014200005FD074604E0FFF701FDC01B02282DD88B
:1014300028688001F7D4616A206AA26A0843E16AD9
:10144000120211430843216B0843E9682D4A1140F9
:101450000843E860286830432860E868012100E01C
:101460003DE009070843E860FFF7E0FC044604E0BC
:10147000FFF7DCFC001B022808D828688001F7D59C
:101480002FE0FFF7D3FC001B022801D90320F8BD91
:1014900028688001F5D4E8681B490840E86020E02E
:1014A0000128F4D0E868226A8107890F914216D199
:1014B0007021626A0140914211D17F21A26A090222
:1014C0000140120291420AD11F214904E26A0140FF
:1014D000914204D1400F216B4007884201D0012086
:1014E000F8BD0020F8BD0000001002400024F40008
:1014F0003801002030010020401002400070004000
:10150000881300008C80C11FFCFFFEEF094910B555
:10151000401E884201D9012010BD074C60610321A3
:10152000081F00F07BFF0020A06107202061002041
:1015300010BD0000FFFFFF0000E000E0F0B5034633
:1015400020331A7F012A24D001221A7702225A77E7
:1015500004686268A568104FBC4205D116460F2288
:10156000120596434A6832437026B2430E6816430A
:1015700066600068B84202D0084A904204D18022D6
:1015800089689543294381600120587700201877A6
:10159000F0BD0220F0BD0000002C0140000400401E
:1015A00070B5040005D025462035687F002802D09C
:1015B00006E0012070BD00202877204600F016F8D4
:1015C00002206877211D206800F000FC01224034D1
:1015D0002272AA77EA7722706270A270E27022719A
:1015E0006271A271E2716A77002070BD38B505465C
:1015F00000681349884222D11248C26B02210A4373
:10160000C263C06B114C084000900F48206021203D
:1016100060601020A060802121610020E06049000E
:1016200061618900A1612021E16120622046FFF70C
:10163000DBF9002801D0FFF7C9F8AC62A56238BD1C
:101640000004004000100240080002408801002011
:10165000F8B5054604462035287F0026012817D016
:1016600001272F7702206877226890682F4B184057
:10167000FF231B02984390600868502838D00EDC86
:1016800020284FD006DC00284CD010281ED149E07D
:101690000220F8BD302845D0402817D13AE0602814
:1016A0002ED0702818D001221203801A0FD0904239
:1016B0000CD1CB684A688968206800F051FC20682A
:1016C0008168012292031143816000E001266F7757
:1016D000002028773046F8BDCB684A6889682068C2
:1016E00000F03EFC21688868772210438860EEE7AE
:1016F000CA684968206800F097FD5021206806E01C
:10170000CA684968206800F0A0FD6021206800F0E8
:1017100033FCDCE7CA684968206800F085FD402199
:101720002068F4E7226801461046F0E788FFCEFF04
:101730007047000010B586B0044614216846FEF7D5
:10174000A4FD0D492068884214D10C48426B012148
:101750000A434263406B049108400590802000904A
:1017600002200190002002900390052069460007A6
:10177000FFF7AEFA06B010BD0004004000100240B2
:10178000F8B504460020264620360090307F0D46EE
:1017900001280CD00120082730770C2A48D008DC1B
:1017A000002A10D0042A1ED0082A06D130E00220D8
:1017B000F8BD102A52D0142A60D0012000900020D9
:1017C00030770098F8BD206800F0E0FB2068816960
:1017D00039438161206881690422914381612068D5
:1017E00081692A6911E0206800F00EFC2068816997
:1017F0000122D20211438161206881695210914314
:101800008161206881692A69120211438161D6E7EA
:10181000206800F037FC2068C1693943C161206845
:10182000C16904229143C1612068C1692A6912E03B
:10183000206800F065FC2068C1690122D2021143D2
:10184000C1612068C269012189028A43C26120689E
:10185000C1692A6912021143C161B0E7206800F032
:1018600083FC2068416D394341652068426D042145
:101870008A4342652068416D2A6912E0206800F0C1
:10188000A1FC2068416D0122D2021143416520680C
:10189000426D012189028A4342652068416D2A69AF
:1018A0001202114341658AE770B5040005D0254650
:1018B0002035687F002802D006E0012070BD00209E
:1018C0002877204600F016F802206877211D20684E
:1018D00000F07CFA012240342272AA77EA77227063
:1018E0006270A270E27022716271A271E2716A7715
:1018F000002070BD7047000010B50421014800F0C1
:10190000E5F810BD3C01002070470000F8B5044622
:1019100000200D460090214620462031403094465C
:10192000002D0ED0042D11D0082D14D00C2D17D061
:10193000102D1AD0C278022A1CD0C278012A1BD0DE
:1019400071E08A7F022A15D08A7FF7E7CA7F022AD0
:1019500010D0CA7FF2E70278022A0BD00278EDE7B6
:101960004278022A06D04278E8E78278022A01D03B
:101970008278E3E70220F8BD6246002A53D0002BAC
:1019800051D00226494F4A4A002D09D0042D18D0C3
:10199000082D27D00C2D36D0102D46D0C67045E02E
:1019A0008E77606AC762606A0263616A4148486311
:1019B000226861463432606AFFF768F8002832D145
:1019C00037E0CE77A06AC762A06A0263A16A39488D
:1019D0004863226861463832A06AFFF757F800284A
:1019E00021D12BE00670E06AC762E06A0263E16A17
:1019F00030484863226861463C32E06AFFF746F8A7
:101A0000002810D11FE04670206BC762206B026374
:101A1000216B28484863226861464032206BFFF7FB
:101A200035F8002814D00120F8BD86700120009000
:101A30003AE02068C168012252020DE02068C168C6
:101A40000122920208E02068C1680122D20203E06C
:101A50002068C168012212031143C1600122294696
:101A6000206800F0F7F914492068884205D0134A2D
:101A7000904202D0124A904204D1426C0123DB030F
:101A80001A43426420680122884202D00D498842EC
:101A900007D181680C4B1940062905D0DB1F9942FC
:101AA00002D00168114301600098F8BD6F1E000864
:101AB000D51E00080D1F0008002C01400044014005
:101AC000004801400004004007000100F8B500266E
:101AD0000D460446002907D0042D0DD0082D13D043
:101AE0000C2D19D0012656E02068C168012252024F
:101AF0009143C160606A16E02068C16801229202C9
:101B00009143C160A06A0EE02068C1680122D20240
:101B10009143C160E06A06E02068C16801221203B7
:101B20009143C160206BFEF7C5FE00222946206864
:101B300000F090F91F491E4B20688A10984205D08A
:101B40001D4B984202D01D4B98420AD1036A0B42AA
:101B500007D1036A134204D1436C0127FF03BB433F
:101B600043642068036A0B4206D1016A114203D123
:101B70000168490849000160214601202031002DFB
:101B80000BD0042D0BD04034082D0AD00C2D0AD0D8
:101B9000102D0AD0E0703046F8BD8877FBE7C87793
:101BA000F9E72070F7E76070F5E7A070F3E7000051
:101BB000002C014011110000004401400048014088
:101BC000FEE70000FFB50D4681B0FF211E4614461A
:101BD00069310B9FFEF75BFB20460191FEF7FCFC91
:101BE000224900F04DFCFEF7B3FC04466420411B83
:101BF00061430846FEF7F0FC1D49FEF7F9FBFEF7CE
:101C0000A7FC05463C210198FEF741FB0090601BB4
:101C100048433C21FEF73BFB009A130000F0F0FB29
:101C200005040910161B2100291834600A98016068
:101C300003E0201A30600A9804603D6005B0F0BDF2
:101C400035600A9928180C603860F7E7211A35606A
:101C50000A98016003E0281830600A9805603C602B
:101C6000ECE734600A99201A0D60EDE73333234026
:101C70000000C84208B50848816B01221143816306
:101C8000806B10400022009011460920FFF736F9C2
:101C90000920FFF727F908BD0010024008B50448E5
:101CA000416B012211434163406B1040009008BD1D
:101CB0000010024010B58EB00024079408940994D7
:101CC0000A940B940C941C2168460D94FEF7DDFADF
:101CD0001E491F4812C0046084605921046141609C
:101CE0000838FFF75DFC002801D0FEF76FFD0120EA
:101CF0000003079007A91648FFF7AAFC002801D0A7
:101D0000FEF764FD1248FFF7CFFD002801D0FEF773
:101D10005DFD0B940BA90E480D94FFF70FFC0028F6
:101D200001D0FEF753FD602000900194029404223C
:101D3000694604940648FFF723FD002801D0FEF70A
:101D400045FD0348FFF7F6FC0EB010BD000400404F
:101D50003C010020FEE77047704710B5FFF76CF8B4
:101D600010BD30B591B034216846FEF78EFA0025DB
:101D700001200D950E950F9540021095FFF7C2F8C2
:101D80000224E001039000944020059008200A906E
:101D900080030B900794000304950C900995089418
:101DA0006846FFF7C7F9002801D072B6FEE70720A2
:101DB0000DA931C102210DA81095FFF7C9F800281F
:101DC00001D072B6FEE711B030BD704770B5026841
:101DD0001B4B1C4E984201D0B04203D17024A24349
:101DE0004C682243184C194D984208D0B04206D096
:101DF000174EB04203D0A04201D0A84204D103261E
:101E00003602B243CE6832438026B2434E69324333
:101E100002608A68C2620A688262984203D0A04265
:101E200001D0A84201D10969016301214161016921
:101E3000C90703D0016949084900016170BD00006C
:101E4000002C0140000400400044014000480140D3
:101E50000020004010B5CB06DB0E0121046A99403A
:101E60008C430462016A9A401143016210BD10B5AF
:101E7000846A0121626A824206D12177C069002802
:101E800022D13E2001551FE0A26A824207D10222E0
:101E90002277C069002817D13F20015514E0E26A7B
:101EA000824207D104222277C06900280CD1402049
:101EB000015509E0226B824206D108222277C069CF
:101EC000002801D1412001552046FFF715FD0020D3
:101ED000207710BD10B5846A616A814201D101206A
:101EE0000DE0A16A814201D1022008E0E16A81424D
:101EF00001D1042003E0216B814201D10820207729
:101F00002046FFF701FD0020207710BD10B5846A40
:101F10000121626A824203D121773E20015519E0F6
:101F2000A26A824204D1022020773F20015511E0AD
:101F3000E26A824204D1042020774020015509E062
:101F4000226B824204D1082020774120015501E014
:101F50003D2001552046FFF7EBFB0020207710BD08
:101F600030B58468FF252D021B021343AC430B439D
:101F70002343836030BD00008268034B1A400A434C
:101F800007210A43826070478FFFCFFFF0B5056AD3
:101F9000026A52085200026243688269164C184E67
:101FA000224092080C6892001443022295438A68EA
:101FB0002A43124DA84204D0B04202D0114FB84279
:101FC00006D10827BA43CF681743042297433A46FD
:101FD000A84204D0B04202D00A4DA84206D103253F
:101FE0002D02AB434D691D438B692B4343608461D4
:101FF000496841630262F0BD8FFFFEFF002C014083
:10200000004401400048014070B5046A026A102390
:102010009A43026243688269164D2A4003252D02C5
:10202000AA430D682D021543202294438A681201A9
:102030002243114CA04207D18024A243CC68402601
:1020400024012243B24305E00C4CA04202D00C4CC8
:10205000A04208D10324A402A3434C69A4001C435A
:102060008B699B00234343608561496881630262F9
:1020700070BD0000FF8FFFFE002C014000440140B6
:102080000048014070B5046A026AFF2301339A4395
:1020900002624368C269164D2A4092080D68920098
:1020A00015430122520294438A6812022243114CC2
:1020B000A04208D11446CA68C614B443120222438F
:1020C0000415A24305E00C4CA04202D00B4CA042E8
:1020D00008D103242403A3434C6924011C438B69C6
:1020E0001B0123434360C5614968C163026270BD3F
:1020F0008FFFFEFF002C01400044014000480140DA
:1021000030B5046A026A01231B039A4302624368E2
:10211000C269114D2A4003252D02AA430D682D02E4
:1021200015430122520394438A68120322430B4C45
:10213000A04205D00A4CA04202D00A4CA04205D1D0
:102140000124A403A3434C69A40123434360C56154
:1021500049680164026230BDFF8FFFFE002C014020
:10216000004401400048014070B5036A026A01263C
:102170003604B24302624268456D0E4C25400C683D
:102180002C437500AB430D892D041D430A4B984227
:1021900005D00A4B984202D0094B984203D14B69B3
:1021A000B2431B021A434260446549688165056277
:1021B00070BD00008FFFFEFF002C01400044014075
:1021C0000048014070B5046A026A01231B059A4366
:1021D00002624268436D104D2B400D682D021D4375
:1021E00001235B059C430B891E050C4B264398423B
:1021F00005D00B4B984202D00A4B984206D10124DD
:102200001346A4044A69A34392021A4342604565F7
:102210004968C165066270BDFF8FFFFE002C01405A
:10222000004401400048014030B5036A046A640874
:10223000640004628469F025AC43120122430A243D
:10224000A3430B438261036230BD30B5046A036A65
:102250001025AB43036283690F252D031203AB43A3
:102260001A43A0239C43090121438261016230BDCE
:1022700030B585B01C46002302930393049303AB4F
:1022800004AD0093019502ABFFF79CFC3020444362
:10229000124821180020FF31C331039A82401206F0
:1022A00001D5442300E0162342008B52029B834059
:1022B0001B0601D5442300E0162352181382049B09
:1022C00083401B0601D5442300E01623401CC0B206
:1022D00013840828E1D305B030BD0000E4010020DC
:1022E000F0B5FFB00E46F2B007460F21254C89012C
:1022F00001A8FDF7CAFF354618204543FF2051309D
:10230000401B4200009030463021484301AE012F6F
:1023100003D0022F1AD1002123E0002104E04B005A
:10232000E75A491CF75289B28D42F8D80119204664
:10233000FDF765FF002007E04100725A0099091877
:102340004900401C625280B28542F5D87FB072B01D
:10235000F0BD009B4F005B185B00E35A491CF35330
:1023600089B28D42F5D800192146FDF748FF0020BB
:1023700004E04100725A401C625280B28542F8D893
:10238000E4E70000A603002010B5034B034A042134
:102390000348FFF7BBFA10BD31020000E401002042
:1023A0003C01002070B5144D144E2C7817E02046E7
:1023B000FEF712F9314600F063F8FEF7C9F864221F
:1023C00080B223461146FFF753FFFFF7DDFF3220AF
:1023D000FEF7A2FB2878401C641C2870E4B20E2C87
:1023E000E5D301210220FFF77BFFFFF7CDFF282077
:1023F000FEF792FB70BD0000000000200000B4401A
:1024000030B47446641E2578641CAB4200D21D466D
:10241000635D5B00E31830BC184700008307FF22B0
:10242000DB0E9A408907090E9940002808DB8308D3
:1024300009489B001B1818689043084318607047B0
:102440000007000F0838830804489B001B18D86950
:1024500090430843D861704700E400E000ED00E0DD
:10246000FEF7F2FCFFF77DFCFFF718FCFFF702FC1C
:10247000FFF720FCFEF702FAFFF794FFFCE70000ED
:1024800070B5420064414B005C41120E39D01B0E06
:1024900038D0FF2A3CD0FF2B3AD040024902400AF4
:1024A000490A060045184E43000A090AD218484353
:1024B000ED017F3A0104731A4019190C4318990F62
:1024C00004D001215B0849075B1A521CD80904D3C8
:1024D000401CF50301D19D0607D0FF2A08D2D5057F
:1024E00006D0E4072043401970BD0125A843F4E756
:1024F000002A01DCE00770BD2402FF202043C00554
:1025000070BD1B0EFF2A03D0FF2B01D0E00770BD6A
:10251000FF2645003606B54206D84D00B54203D821
:10252000D218FF2A00D0E7E7004870BD0000C07F46
:10253000000000000000000000000000000000009B
:10254000000000000000000000000000000000008B
:102550000100000002000000030000000400000071
:10256000060000000700000008000000090000004D
:102570008182838485868788898B8C8D8E8F9192CA
:1025800093959697999A9C9D9FA0A2A3A5A7A8AA68
:10259000ACAEB0B2B3B5B7B9BCBEC0C2C5C7C9CC8A
:1025A000CED1D4D7D9DCDFE2E6E9ECF0F3F7FAFEDE
:1025B000D0250008000000203C010000C6060008ED
:1025C0001C2600083C0100204C0D000004010008FE
:1025D00031271C202020221C12081A08012127382C
:1025E000041C24241A2A180F19181B18240102513C
:1025F00018123E3A4102B222B27912241A5402123F
:1026000038924012419A7F0EE91012383A44020281
:0C261000593832017A049F12F4000000D7
:04000005080000C12E
:00000001FF
