:020000040800F2
:10000000D80E00209D010008613700083F28000835
:1000100000000000000000000000000000000000E0
:10002000000000000000000000000000653700082C
:100030000000000000000000633700086737000878
:10004000AF01000800000000AF010008AF01000888
:10005000AF0100087D0A0008AF0100088D0A000802
:1000600000000000CD090008AF010008AF01000842
:10007000AF010008AF010008AF0100080000000058
:10008000AF0100080000000000000000D9370008A0
:1000900000000000AF010008AF010008412800087F
:1000A000AF010008AF010008AF010008AF01000870
:1000B000AF01000800000000000000000000000088
:1000C00000F002F800F03EF80CA030C80838241800
:1000D0002D18A246671EAB4654465D46AC4201D180
:1000E00000F030F87E460F3E0FCCB6460126334274
:1000F00000D0FB1AA246AB4633431847EC41000040
:100100000C420000103A02D378C878C1FAD85207DE
:1001100001D330C830C101D504680C6070470000BD
:100120000023002400250026103A01D378C1FBD813
:10013000520700D330C100D50B6070471FB51FBDFB
:1001400010B510BD00F00EFC1146FFF7F7FF03F0ED
:10015000B7FE00F026FC03B4FFF7F2FF03BC00F08B
:100160002DFC000070B505460C46164602E00FCC8B
:100170000FC5103E102EFAD2082E02D303CC03C5B1
:10018000083E042E07D301CC01C5361F03E02178B9
:100190002970641C6D1C761EF9D270BD074880471B
:1001A00007480047FEE7FEE7FEE7FEE7FEE7FEE75B
:1001B00004480549054A064B70470000D737000838
:1001C000C1000008D8080020D80E0020D80A00205E
:1001D000D80A0020431A70B593421BD289188018A0
:1001E00004E0491E401E0B78521E03709307F8D19D
:1001F00006E01039103878C9103978C01038103A34
:10020000102AF6D203E0091F001F0B680360121FBB
:10021000F9D570BDFFF7A6FF70BDF8B506461446C8
:100220000843800707D0751AA54219D20819102D66
:1002300013D2311907E03046FFF7CCFFF8BD401E5E
:10024000491E02780A70641EF9D2F8BD471B2A467F
:10025000394600F046FB641B3846A542F6D3011B25
:100260002246304600F03DFBF8BD01E004C0091F06
:100270000429FBD28B0701D50280801CC90700D05E
:100280000270704700290BD0C30702D00270401CD7
:10029000491E022904D3830702D50280801C891ECF
:1002A000E3E70022EEE70022DFE7002203098B42AA
:1002B0002CD3030A8B4211D300239C464EE0034605
:1002C0000B433CD4002243088B4231D303098B42B9
:1002D0001CD3030A8B4201D394463FE0C3098B42EF
:1002E00001D3CB01C01A524183098B4201D38B0148
:1002F000C01A524143098B4201D34B01C01A5241EB
:1003000003098B4201D30B01C01A5241C3088B422F
:1003100001D3CB00C01A524183088B4201D38B001A
:10032000C01A524143088B4201D34B00C01A5241BC
:10033000411A00D201465241104670475DE0CA0F93
:1003400000D04942031000D34042534000229C4653
:1003500003098B422DD3030A8B4212D3FC2289015D
:1003600012BA030A8B420CD3890192118B4208D333
:10037000890192118B4204D389013AD0921100E095
:100380008909C3098B4201D3CB01C01A52418309A9
:100390008B4201D38B01C01A524143098B4201D3D6
:1003A0004B01C01A524103098B4201D30B01C01A01
:1003B0005241C3088B4201D3CB00C01A524183087B
:1003C0008B4201D38B00C01A5241D9D243088B42D1
:1003D00001D34B00C01A5241411A00D20146634674
:1003E00052415B10104601D34042002B00D54942D8
:1003F000704763465B1000D3404201B50020C04601
:10040000C04602BD70477047704700000346CA02ED
:10041000400D10B510430A1504D00124E407204311
:10042000002A05DB0A4CA21A04D4D040FF2A00DDC2
:10043000002010BD4A00002B01D0012000E0002068
:10044000101801225205D042F2D8C817C04310BD7F
:100450001E0400001F22030C02D10F22000402D050
:10046000030E03D004E00020014670470002083A62
:10047000030F01D10001121F830F01D18000921ED2
:10048000002801DB4000521E120551184205C0121F
:10049000411810467047C10FC90700D040420122E1
:1004A00092071143D6E701218907D3E7F0B58B4CBA
:1004B0000F09254689B0BD437BD01D092646AE43B2
:1004C000FAD00E465E402740F60F3E43254071D0DD
:1004D00024012142FBD0FF24AD19A4042D1B039558
:1004E00001252D05DB02DB0AC9022B43C90A29437A
:1004F0001E010901040F130F050121431701880B89
:10050000820391432D098C46A90B1E438A03954310
:10051000B30B9A0396433F09BA0B9403A743029681
:100520002E467E430497B6464E19D7190C460196BF
:10053000544305977E43371B7646BF1B3601B646AC
:10054000BE0B361900967646BC043719009C01D3C1
:10055000641C00946400002F01D001263443029EE5
:10056000049F754366467E430496760034196E00F8
:1005700034190094029C019E1C196643751BAE46FB
:10058000069465464519059C05956C435943754687
:100590000891691A0191049E01465143A41B0491DC
:1005A000611A009C0791E10605D0610901221143FF
:1005B00002E072E06EE06109089D00272C0A2D061A
:1005C0006918049D7C412A0A2D066918019D624123
:1005D000AC0DAD026D185441079A910D9202551958
:1005E0006141029A644658435443069B059A5A4314
:1005F000121A131B9A0E9B015B187A41010B00051E
:10060000C3185141220A200644195A419A4200D285
:10061000491C01204002814203D315230226F643E0
:1006200002E014230326F6432020C51AA9401746EA
:10063000AF40DA400A4320460399D84009147318A2
:1006400019055118039A3843D2075140AC4009D0DC
:100650000122944006D30022401C5141002C01D1BC
:10066000400840001E4A934212D30122039892068A
:10067000904207DB0520400709181A480143C012C1
:10068000414004E0032040070818C10FC9070020BB
:1006900009B0F0BD0020F107FAE705180C464C41FF
:1006A00011486D42A04115D394181A465A410E487C
:1006B000644290410ED301204A004005824209D392
:1006C0005A00824206D35940C90F084AC907002080
:1006D0001143DDE700200649DAE700000000FF07CC
:1006E000FE070000FFFFFF7F0000E0FF0000F07F3B
:1006F0000000F87FF0B5FF252D04C609C209FF27C9
:1007000004462E400137CB093E4348402A402B4047
:100710000746002A6BD0002B69D0AA4267D0AB42B3
:1007200065D0002800DA32460125ED0529432C4327
:1007300009022002090AD21A4B0C7F24E31A434C07
:10074000000A7C44E35C7D242404121914145B0029
:10075000A218884201D3521C00E0400049420C46D6
:100760005C4324115C43DB016415E318040A5C4319
:10077000C502200D0C4644436419250A5D4323033A
:10078000EC0C0D46654300030019EB184C42A342E4
:1007900001D35B18401CD4052018002B07D05B0048
:1007A000C91804D3401C002901D1400840003F2152
:1007B00089048A4209D3002A08DC1106090F04D0F3
:1007C000032149074018C00FC007F0BD01224100B6
:1007D000120689187F2252069142F6D20521490756
:1007E000C84201D59010F0BDFF20C005F0BD002F1C
:1007F00000DA32461648AA4207D2AB4205D21902A5
:10080000090E17D0F80FC007F0BDFF2563002D06B5
:10081000AB42F9D84900A942F6D8AB4201D1A9426E
:10082000F2D0A94201D1002101E061004908D005C0
:100830000843F0BD1102090EFBD0FF200243D00592
:10084000F0BD0A460146104654E70000623B000036
:100850000000C07F0102C21504D00123DB07194349
:10086000002A0ADB9E239A1A02D40846D040704719
:10087000FF2241001206914201D900207047C017A3
:10088000C04370471F22030C02D10F2200041CD06A
:10089000030E01D10002083A030F01D10001121F1B
:1008A000830F01D18000921E002801DB4000521E00
:1008B000D2055118021251181922904004D3491C34
:1008C000002801D14908490008467047C10FC907EF
:1008D00000D04042012292071143D3E7012189074A
:1008E000D0E7F8B5042A2CD3830712D00B78491C23
:1008F0000370401C521E83070BD00B78491C0370F9
:10090000401C521E830704D00B78491C0370401C06
:10091000521E8B079B0F05D0C91ADF002023DE1B58
:1009200008C90AE0FFF71EFCF8BD1D4608C9FD40D6
:100930001C46B4402C4310C0121F042AF5D2F30801
:10094000C91A521EF0D40B78491C0370401C521E69
:10095000EAD40B78491C0370401C012AE4D40978BE
:100960000170F8BD754600F025F8AE4605006946F1
:100970005346C008C000854618B020B5FFF718FCE4
:1009800060BC00274908B6460026C0C5C0C5C0C522
:10099000C0C5C0C5C0C5C0C5C0C5403D49008D4625
:1009A000704710B50446C046C0462046FFF7D3FB4B
:1009B00010BD000000487047780800200149182049
:1009C000ABBEFEE7260002007047000010B50248EB
:1009D00000F020F910BD00003407002010B50446D7
:1009E000006C094980088000401860642078142158
:1009F0000838FFF75AFC04498031A164C106C90ECA
:100A000001208840E06410BD000802400179084BD5
:100A10008906890E8A00D2180265054A4432491EA9
:100A200042658A07920F012191408165704700005D
:100A3000FC080240F0B5846CC56C6560046D002C48
:100A400002D0446D856D65600B4C6568066C1C2793
:100A50003E400127B7403D4365600468636083689A
:100A6000102B036803D099600068C260F0BD9A60E3
:100A70000068C160F0BD00000000024010B5012018
:100A800000F0CEFA022000F0CBFA10BD10B5102015
:100A900000F0C6FA0120000300F0C2FA0120C003F2
:100AA00000F0BEFA10BD72B6FEE700000448006A0E
:100AB000C0B2AA2802D0CC2800D0BB2070470000CA
:100AC000002002400248006A0249084070470000C6
:100AD0000020024000604F0730B5044C236AFF2518
:100AE000284383430B431343236230BD002002405D
:100AF000F8B5044600F0AAFB012706463F04124D54
:100B000006E0601C04D000F0A1FB801BA04213D2C1
:100B100028693842F5D128690C4908400C492961F7
:100B20000CD00C4948600120F8BD601C06D000F0D4
:100B30008DFB801BA04201D30320F8BD2869400330
:100B4000F3D40020F8BD000000200240FA8300002A
:100B5000FB8300005C08002000B587B0684600F009
:100B60004DF90698C10110D5012109068843069068
:100B700000F0FAF900F0E4F9684600F063F900F0DB
:100B8000C1F900F0C9F900F0A9F907B000BD0000F3
:100B9000F8B50024024620325179022903D00421FD
:100BA000C16301242DE001680B680E25AB430B6087
:100BB00001680B685B085B000B60416C0B68FF25EC
:100BC0000135AB430B6010494D68066C1C231E4079
:100BD00001231F46B7403D434D60816CC56C4D609D
:100BE000016D002906D00E681D02AE430E60416DF6
:100BF000856D4D60537100211171816B002900D00A
:100C000088472046F8BD00000000024020304079AF
:100C100070470000F0B42C490C6802681368056C3A
:100C20001C273D400426AE40264211D05E070FD55A
:100C300013689B0603D4146804239C4314604B6818
:100C4000046C04223C40A24013434B60016B1CE047
:100C50000227AF40064627402036002F19D09F07B5
:100C600017D513689B0605D413680A24A3431360A1
:100C7000012272714B68046C1C2214400222A240B3
:100C800013434B6000213171C16A00291AD0F0BCB6
:100C900008470827AF40274214D01B0712D5136816
:100CA0000E24A34313604B68046C1C2214400122E1
:100CB0001546A5402B434B60C26372710021317110
:100CC000416BE2E7F0BC70470000024070B50400E1
:100CD0003FD02548256814212818FFF7E6FA800040
:100CE0002064022026462036707128681F4908407B
:100CF0002860E168A06862690843216911430843DC
:100D0000A1690843E1690843216A084321680A6828
:100D1000104308602046FFF761FE0121A0688903A7
:100D20000025884200D165602079616C8006800EC4
:100D30000860A06CE16C41606068401E03280AD81E
:100D40002046FFF763FE206D0560606DA16D416078
:100D500004E0012070BD25656565A565E56301209A
:100D600070713571002070BDF8FFFDBF0F80FFFF6F
:100D7000F8B504468C4620300179002501290BD0B6
:100D80000126067141790027012907D08021E163FE
:100D9000077101252846F8BD0220F8BD02214171E6
:100DA000E763206801684908490001606146204600
:100DB000FFF740FE206B00282068016801D00E225A
:100DC00005E0042291430160206801680A22114372
:100DD0000160606C0168CA03074902D502680A43D2
:100DE0000260206D002802D002680A430260206879
:100DF000016831430160CDE70001000010B50446F1
:100E00000720206061680D48012910D0016BC906D8
:100E1000C90EA160006BC002C00EE060FFF746FE85
:100E20002061FFF74FFEA0610548606110BDC16AF7
:100E3000C906C90EA160C06AEDE7000000200240AB
:100E400000604F07F8B5234E0446307801281BD0C8
:100E5000012030700027776020781F4DC00707D031
:100E60006268A168E068012A10D000040843286382
:100E700020684107890F03290CD081070CD5FFF7A3
:100E800021FE014622690EE00220F8BD000408435D
:100E9000E862EDE7226904E0400706D5FFF706FEA9
:100EA0000246A1696069FFF717FE7D20C000FFF7C9
:100EB0001FFE00280BD16869012464042043686187
:100EC0007D20C000FFF714FE6969A1436961377096
:100ED000F8BD00005C0800200020024010B57D2015
:100EE0000124C000FFF704FE054841698204114354
:100EF00041614069002800DA0024204610BD00004E
:100F000000200240034841690122D2061143416199
:100F1000012070470020024010B57D200124C00050
:100F2000FFF7E6FD0548416942041143416140690C
:100F3000400000D50024204610BD000000200240E3
:100F4000064901204A69520007D5054ACA60054A88
:100F5000CA604969490000D400207047002002405F
:100F60003B2A19087F6E5D4C064900204A69002A19
:100F700007DA054A8A60054A8A604969002900DA69
:100F8000012070470020024023016745AB89EFCD67
:100F900070B50246052000071E4C0125102A28D0F6
:100FA0000BDC012A1AD0022A22D1022100F042F9D8
:100FB00000281DD16078102117E001210903521A81
:100FC00020D007200003824212D1C900124800F04D
:100FD00031F900280CD16078042106E0012100F0ED
:100FE00029F9002804D16078082108436070257031
:100FF00070BD1021094800F01DF90028F8D1607873
:101000000221F2E700F016F90028F1D160782843B8
:10101000ECE700000600002000080050000400502B
:1010200070B5084D0446E868204203D0EC602046C5
:1010300000F00AF82869204203D02C612046FFF70F
:10104000A7FF70BD0018024070B5024605200007DA
:101050001E4C0125102A28D00BDC012A1AD0022AA6
:1010600022D1022100F0E6F801281DD16078EF219D
:1010700017E001210903521A20D007200003824201
:1010800012D1C900124800F0D5F801280CD16078BF
:10109000FB2106E0012100F0CDF8012804D16078A1
:1010A000F72108406070257070BD1021094800F0DC
:1010B000C1F80128F8D16078FD21F2E700F0BAF814
:1010C0000128F1D1607840084000EBE706000020DD
:1010D0000008005000040050F0B5002303249AE0FB
:1010E0002A4601259D402A407ED00E79B607B60FCC
:1010F000012E01D0022E16D186682746B4465E0026
:10110000B646B7406646BE43B446CF687646B7405B
:101110006646374387604668AE430D79ED06ED0FAE
:101120009D40354345600D79ED43AD0708D0C56856
:101130005F002646BE40B5438E68BE402E43C66063
:101140000D79AD07AD0F022D0ED1DD08AD002D18C4
:10115000AC462D6A5E07F60E0F27B740BD430F69F8
:10116000B7402F4365462F6205685F002646BE40A4
:10117000B5430E79B607B60FBE402E4306604D68E4
:10118000AD03AD0F46D09E08264DB6007519AC468E
:101190002D6E9E07F60E0F27B740BD4305273F076C
:1011A000B84201D100270FE01F4FB84201D10127FB
:1011B0000AE01E4FB84201D1022705E01C4FB84299
:1011C00001D1032700E00527B7402F43154D6646A0
:1011D00037662D684E689543F60200D51543114FCA
:1011E0003D607D68954300E014E04E68B60200D58E
:1011F00015437D600B4D80356E684F689643BF0385
:1012000000D516436E602E684F689643FF0300D5E5
:1012100016432E605B1C0A681546DA4000D05FE773
:10122000F0BD00000018024000040050000800500B
:10123000000C00500069084000D001207047002ACF
:1012400001D0816170478162704700000148806869
:10125000704700001400002070B5024640325378F9
:10126000202B1CD11378012B19D0012313702424B7
:101270005470046825689D432560046825681E0332
:10128000B5432560046825680D4325600068016842
:1012900019430160202050700020107070BD0220A2
:1012A00070BD70B5024640325378202B1BD11378A5
:1012B000012B18D0012414702423537003681D6877
:1012C000A5431D6005682B680F263602B34309024B
:1012D0001943296000680168214301602020507093
:1012E0000020107070BD022070BD704770B50029DD
:1012F00007D0012904D14B0601221B4900F0B4F9A3
:1013000070BD194900230222891C00F043F9164DD3
:10131000AD1C29780029F3D0A81E022902D010297B
:1013200005D102E01149497800E002210170104C1A
:10133000A07A6428E4D22146C03940180A49012223
:10134000891CFEF76AFFA17A20465B380818012243
:10135000691CFEF762FFA07A401CA07202480838A0
:101360000021418170BD0000100000200600002017
:101370005008002070B503689A691968D243D405F3
:1013800008D4CC43240605D4446C01252C43446482
:101390002C02DC61530509D4CB431B0606D4436CF5
:1013A000082423434364E3010468E361920509D4FC
:1013B000C943090606D4416C02221143416411025B
:1013C0000268D161416C0B22114201D001F00CFB8B
:1013D00070BD026891691268436B002B00D01847FA
:1013E0007047000010B5014640314A78202A01D0EC
:1013F000022010BD28224A70034941630121C9031C
:1014000001F066FA002010BDE931000870470000C5
:1014100070B5040006D025464035687800260028BF
:1014200002D005E0012070BD2E70204600F056F875
:1014300024206870206801684908490001600F2174
:101440006068090688432168086121688A6801206C
:10145000C00382438A60E1680129A1682FD021225C
:1014600092021143226891600121E268C902022AB6
:101470002268536825D08B43536021684A68124B19
:101480001A434A602168CA688243CA606169206958
:101490000843A169090208432168C860216AE0691C
:1014A0000843216808602068016801221143016037
:1014B0006664202068702663AE70002070BD014312
:1014C000D0E70B43D8E700000080000210B5FFF71B
:1014D00089FF10BD704770477047704730B58DB0B9
:1014E000044614216846FEF7DEFE182105A8FEF723
:1014F000DAFE1B492068884230D120200025059063
:10150000079505A800F0A8F9002801D0FFF7CBFA4D
:10151000144C616B022001436163616B02950140D1
:10152000032000020B9100901220019003200390F1
:101530000620049069460C48FFF7CEFDE16B0120C0
:1015400040050143E163E16B002201400B9111462C
:10155000172000F057F9172000F048F90DB030BD02
:1015600000540040001002400004005008B5002163
:10157000012300915B060222694600F00BF808BDCA
:1015800010B501235B060122014900F06DF810BD82
:1015900010000020FFB505460F464035697881B040
:1015A000164604462820884313D1002F0ED0002E63
:1015B0000CD02A49204601F061F9287801280BD087
:1015C000012028706878292808D021E001204002F5
:1015D0006064012005B0F0BD0220FBE70121204638
:1015E00001F04CF920680168490411D50168012215
:1015F000920391430160A06B002809D018498163D0
:10160000A06BFFF7C5FA002802D0A06B816B88475A
:101610002A2068702020A870002161642068426838
:101620000123DB039A43426067626685608D2085F3
:101630000498E0620B48606320688269836912073E
:10164000D20FDB0303D4002A01D00822C261297023
:101650000249204601F03CF90020BBE7028000006F
:1016600061280008E9310008FFB505460F464035FE
:10167000697881B0164604462820884313D1002F8C
:101680000ED0002E0CD02B49204601F0F7F8287818
:1016900001280BD00120287068782A2808D021E082
:1016A000012040026064012005B0F0BD0220FBE78C
:1016B0000221204601F0E2F820680168090411D5F2
:1016C00002680121C9038A430260E06B002809D047
:1016D00019498163E06BFFF75BFA002802D0E06BE9
:1016E000816B8847292068702020A87000216164E0
:1016F000206842680123DB039A4342606762668583
:10170000608D20850498E0620C48606320688269DF
:1017100083691207D20F1B0CDB07DB0F03D0002AF3
:1017200001D00822C26129700249204601F0D0F898
:101730000020B9E70180000061280008E9310008B5
:10174000024881680278891881607047140000207F
:1017500010B5084800240168821511430160032078
:1017600000F00AF8002801D0012401E000F028F878
:10177000204610BD0020024070B50F4E0024317885
:101780000546002915D07D20C000FEF78EFD0146DC
:101790000A480068FEF789FD00F0E2FB002808D146
:1017A000042D06D200222946401E00F02BF8756059
:1017B00000E00124204670BD14000020200000201D
:1017C00008B5094801680122114301600068104012
:1017D000009005484038C26B01040A43C263C06BE5
:1017E0000840009008BD000040100240002805DBC2
:1017F000C106C90E012088400149086070470000F9
:1018000000E100E010B502F039FB10BD10B50F4C3F
:10181000216803225202914301432160C11FFF3915
:10182000FA390ED10A480621006848430949FEF7F3
:101830003CFD401C02E0002805D0401E61694905BE
:10184000F9D4002010BD032010BD0000007000403E
:101850002000002040420F00F8B504460068002632
:101860004D4D800358D54C4800274038C06BC00010
:1018700009D449484038C26B01040A43C263C06BB3
:101880000840012700904548016882151143016016
:10189000FFF7DCFC009005E0FFF7D8FC0099401A48
:1018A000022825D83D480068C005F5D5E869032120
:1018B000090208400FD0616981420CD0E869032118
:1018C0000902EA698843012109040A43EA61EA69D5
:1018D0008A43EA61E861C0070FD0FFF7B7FC0090C8
:1018E00008E0FFF7B3FC0099411A2D48814201D965
:1018F000032609E0E8698007F3D5E86903210902B6
:10190000884361690843E861002F05D022484038C8
:10191000C26B01048A43C2632078C00705D068699E
:10192000616880088000084368612078800606D5D9
:101930006869032109038843A16808436861208816
:10194000400411D5686921698000800808436861F6
:10195000012120698907884206D10F484038C168B3
:10196000012212041143C1602088000512D5686964
:10197000032189038843E168084368610121E06825
:101980008903884206D104484038C1680122120404
:101990001143C1603046F8BD401002400070004065
:1019A00088130000F8B50F46060043D04D4D286857
:1019B0004007400FB84213D22868C008C00038431F
:1019C0002860FFF743FC044605E0FFF73FFC011BDE
:1019D0004548814261D828684007400FB842F4D199
:1019E0003068424C81070DD5400704D5A068072117
:1019F00009030843A060A0680F2109028843B16869
:101A00000843A0603078C00732D0706801280AD03F
:101A100002280BD000280FD03449403103280ED0C3
:101A2000C969890704E02168890301E02168890107
:101A3000002906DB0120F8BD21684905F8E7096A9D
:101A4000EFE7A168C908C9000143A160FFF7FEFBE9
:101A5000009006E0FFF7FAFB0099411A2248814204
:101A60001BD8A068382108407168C9008842F1D1AC
:101A700028684007400FB84217D91A480168C908BA
:101A8000C90039430160FFF7E1FB054607E0FFF7B6
:101A9000DDFB411B1448814201D90320F8BD1148E8
:101AA00000684007400FB842F1D13078400706D5B2
:101AB000A068072109038843F1680843A06000F08B
:101AC0001DF8A1683C2289091140094A515CC906E8
:101AD000C90EC8400749086007480068FFF74CFE78
:101AE000F8BD0000002002408813000000100240F2
:101AF00068420008200000201800002010B5204C8B
:101B0000A068204A8006400F16D0A0688006410FCA
:101B1000501001290FD0A1688906490F022912D05F
:101B2000A0688006400F042823D0A0688006400FDC
:101B3000032821D0002010BD206801218004400F1F
:101B40008140104612E0E1688B07E1689B0F49066F
:101B5000490F491C032B00D01046FEF7A6FBE16895
:101B60004904490E4843E168490F491CFEF79DFBB3
:101B700010BD0120C00310BD7D20000210BD00007B
:101B8000001002400024F400F8B504007ED0207854
:101B90003827C007E94D002846D0A868E9683840D2
:101BA0008907890F102802D008280BD001E00329EB
:101BB00008D001206268000482420AD129680143EA
:101BC000296015E0286880032ED560680028DDD0E4
:101BD0002AE0052301211B0489049A422A6802D1C4
:101BE0000A432A60EAE782432A602868884328601B
:101BF000606800280CD0FFF729FB064604E0FFF7D9
:101C000025FB801B642873D828688003F7D50BE078
:101C1000FFF71CFB064604E0FFF718FB801B642857
:101C2000F1D828688003F7D42078800769D5A868A0
:101C3000E96838408A070721920FC902102802D0AC
:101C4000002813D001E0022A10D0E068002846D016
:101C5000286888432169084328602868FF210131EA
:101C600008432860FFF7F2FA06462CE02A6852057E
:101C700002D5E268002A89D06A687F231B029A4352
:101C800063691B021A436A60002800E08DE00ED1F0
:101C90002868884321690843286028680121800456
:101CA000400F8140A648FEF700FBA6490860A64801
:101CB0000068FFF761FD002877D122E0FFF7C6FA40
:101CC000801B02289FD828684005F7D568687F21C7
:101CD00009028843616909020843686011E02968C4
:101CE000FF20013081432960FFF7B0FA064605E086
:101CF00098E0FFF7ABFA801B022884D828684005DB
:101D0000F7D42078914E00072ED5A8688006400FA2
:101D100003280AD0A0690028306A16D001210843A0
:101D20003062FFF793FA07460BE0306A80071BD555
:101D3000A06900289FD017E0FFF788FAC01B02288F
:101D400070D8306A8007F7D50EE040084000306256
:101D5000FFF77CFA074604E0FFF778FAC01B022879
:101D600060D8306A8007F7D4207840076CD5A8681F
:101D700000278006400F042818D0E86BC00008D464
:101D8000E96B012000070143E963E96B014001278A
:101D900000916F480168C90519D401688215114383
:101DA0000160FFF753FA00900DE083E0F0698007CF
:101DB0004AD5A06800287DD046E0FFF747FA009991
:101DC000401A02282ED862480068C005F5D5A168DF
:101DD000012910D004200529F16911D049084900D2
:101DE000F161F1698143F161A068002816D0FFF725
:101DF0002DFA00900EE0F06901210843F061F3E74D
:101E00000143F161F7E7FFF721FA0099411A5148C0
:101E1000814265D8F0698007F5D50EE0FFF716FA24
:101E2000009007E05CE0FFF711FA0099411A494879
:101E3000814255D8F0698007F5D4002F04D0E96BB2
:101E4000012000078143E963E069002873D0A96895
:101E50008906490F02294DD0012636060228286836
:101E600005D0B0432860FFF7F1F904463AE0B043EB
:101E70002860FFF7EBF9074604E0FFF7E7F9C01B1E
:101E800002282DD828688001F7D4616A206AA26AE6
:101E90000843E16A120211430843216B0843E968D1
:101EA0002D4A11400843E860286830432860E868FC
:101EB000012100E03DE009070843E860FFF7C6F9AB
:101EC000044604E0FFF7C2F9001B022808D828687E
:101ED0008001F7D52FE0FFF7B9F9001B022801D9DF
:101EE0000320F8BD28688001F5D4E8681B49084044
:101EF000E86020E00128F4D0E868226A8107890FB1
:101F0000914216D17021626A0140914211D17F2124
:101F1000A26A09020140120291420AD11F2149041A
:101F2000E26A0140914204D1400F216B4007884290
:101F300001D00120F8BD0020F8BD000000100240D3
:101F40000024F4002000002018000020401002406F
:101F500000700040881300008C80C11FFCFFFEEF62
:101F6000094910B5401E884201D9012010BD074C17
:101F700060610321081F01F081FF0020A06107209C
:101F80002061002010BD0000FFFFFF0000E000E026
:101F90007047704770470000F0B5034620331A7F42
:101FA000012A24D001221A7702225A770468626833
:101FB000A568104FBC4205D116460F221205964364
:101FC0004A6832437026B2430E6816436660006862
:101FD000B84202D0084A904204D1802289689543D1
:101FE000294381600120587700201877F0BD022036
:101FF000F0BD0000002C01400004004070B504005A
:1020000005D025462035687F002802D006E0012053
:1020100070BD00202877204600F016F8022068776F
:10202000211D206801F0E0FB012240342272AA77D2
:10203000EA7722706270A270E27022716271A271FE
:10204000E2716A77002070BD38B5054600681F4907
:10205000884225D11E48C26B02210A43C263C06B6D
:102060001D4C084000901B4820602120606010201B
:10207000A0600020E060802020614000606180005E
:10208000A0612020E0610320000320622046FEF7CB
:102090001DFE002801D0FEF706FDAC62A56238BD2A
:1020A0000E498842FBD10A4840300268C9130A43EE
:1020B0000260006800220840009003211320FFF70F
:1020C000A1FB1320FFF792FB38BD00000004004085
:1020D00000100240080002403407002000200040A9
:1020E000014620314A7F012A01D001207047022297
:1020F0004A770168CB6801221343CB600068094925
:10210000884202D00849884207D18168074B1940AC
:10211000062905D0DB1F994202D0016811430160F6
:1021200000207047002C014000040040070001001F
:10213000F8B5054604462035287F0026012817D02B
:1021400001272F7702206877226890682F4B18406C
:10215000FF231B02984390600868502838D00EDC9B
:1021600020284FD006DC00284CD010281ED149E092
:102170000220F8BD302845D0402817D13AE0602829
:102180002ED0702818D001221203801A0FD090424E
:102190000CD1CB684A688968206801F0EFFB2068A1
:1021A0008168012292031143816000E001266F776C
:1021B000002028773046F8BDCB684A6889682068D7
:1021C00001F0DCFB21688868772210438860EEE725
:1021D000CA684968206801F035FD5021206806E092
:1021E000CA684968206801F03EFD6021206801F05E
:1021F000D1FBDCE7CA684968206801F023FD402173
:102200002068F4E7226801461046F0E788FFCEFF19
:1022100070477047F8B504460068C668056900272E
:10222000A907002913DAB10711D5F91E01610120B0
:102230002077206880698007204602D0FFF7E9FFF9
:1022400004E000F0B1F8204600F06AF9277768074B
:1022500016D5700714D504202168C04308610220F8
:102260002077206880698005800F204602D0FFF724
:10227000D0FF04E000F098F8204600F051F92777ED
:10228000280715D5300713D508202168C0430861F9
:10229000042020772068C0698007204602D0FFF71D
:1022A000B8FF04E000F080F8204600F039F9277705
:1022B000E80616D5F00614D510202168C043086141
:1022C000082020772068C0698005800F204602D052
:1022D000FFF79FFF04E000F067F8204600F020F9C8
:1022E0002777E80708D0F00706D001202168C0430F
:1022F0000861204600F078FA280601D4A80407D522
:10230000300605D52168134808612046FFF741FED5
:10231000E80507D5300605D521680F480861204635
:10232000FFF736FE680608D5700606D540202168FE
:10233000C0430861204600F081FAA80608D5B0061F
:1023400006D520202168C04308612046FFF722FE01
:10235000F8BD00007FDFFFFFFFFEFFFF10B586B076
:10236000044614216846FDF79EFF0D492068884207
:1023700014D10C48426B01210A434263406B049123
:1023800008400590802000900220019002900320D8
:102390000390052069460007FEF79EFE06B010BDBB
:1023A00000040040001002407047F8B504460020C9
:1023B000264620360090307F0D4601280CD00120A3
:1023C000082730770C2A48D008DC002A10D0042ACD
:1023D0001ED0082A06D130E00220F8BD102A52D0C3
:1023E000142A60D001200090002030770098F8BDBA
:1023F000206801F0D9FA2068816939438161206839
:102400008169042291438161206881692A6911E010
:10241000206801F007FB206881690122D202114384
:1024200081612068816952109143816120688169CE
:102430002A69120211438161D6E7206801F030FB5E
:102440002068C1693943C1612068C1690422914390
:10245000C1612068C1692A6912E0206801F05EFB51
:102460002068C1690122D2021143C1612068C2699A
:10247000012189028A43C2612068C1692A69120266
:102480001143C161B0E7206801F07CFB2068416D19
:10249000394341652068426D04218A4342652068C2
:1024A000416D2A6912E0206801F09AFB2068416DB5
:1024B0000122D202114341652068426D0121890247
:1024C0008A4342652068416D2A69120211434165C1
:1024D0008AE770B5040005D025462035687F0028BE
:1024E00002D006E0012070BD00202877204600F0D1
:1024F00016F802206877211D206801F075F9012285
:1025000040342272AA77EA7722706270A270E27079
:1025100022716271A271E2716A77002070BD70470A
:1025200010B50421014800F0E5F810BD9C0600201C
:1025300070470000F8B5044600200D460090214683
:102540002046203140309446002D0ED0042D11D06D
:10255000082D14D00C2D17D0102D1AD0C278022AB5
:102560001CD0C278012A1BD071E08A7F022A15D0C4
:102570008A7FF7E7CA7F022A10D0CA7FF2E7027883
:10258000022A0BD00278EDE74278022A06D0427880
:10259000E8E78278022A01D08278E3E70220F8BDDA
:1025A0006246002A53D0002B51D00226494F4A4A96
:1025B000002D09D0042D18D0082D27D00C2D36D091
:1025C000102D46D0C67045E08E77606AC762606A9B
:1025D0000263616A41484863226861463432606A36
:1025E000FEF7C6FB002832D137E0CE77A06AC7627B
:1025F000A06A0263A16A394848632268614638329A
:10260000A06AFEF7B5FB002821D12BE00670E06A36
:10261000C762E06A0263E16A304848632268614643
:102620003C32E06AFEF7A4FB002810D11FE04670A0
:10263000206BC762206B0263216B284848632268C5
:1026400061464032206BFEF793FB002814D0012036
:10265000F8BD8670012000903AE02068C168012230
:1026600052020DE02068C1680122920208E0206851
:10267000C1680122D20203E02068C168012212036E
:102680001143C16001222946206801F0F1F8144984
:102690002068884205D0134A904202D0124A9042E4
:1026A00004D1426C0123DB031A43426420680122F7
:1026B000884202D00D49884207D181680C4B1940ED
:1026C000062905D0DB1F994202D001681143016041
:1026D0000098F8BD8B380008F13800082939000847
:1026E000002C01400044014000480140000400402B
:1026F00007000100F8B500260D460446002907D062
:10270000042D0DD0082D13D00C2D19D0012656E024
:102710002068C168012252029143C160606A16E0DC
:102720002068C168012292029143C160A06A0EE054
:102730002068C1680122D2029143C160E06A06E0CC
:102740002068C168012212039143C160206BFEF72B
:102750001FFA00222946206801F08AF81F491E4B03
:1027600020688A10984205D01D4B984202D01D4B1C
:1027700098420AD1036A0B4207D1036A134204D17B
:10278000436C0127FF03BB4343642068036A0B4289
:1027900006D1016A114203D101684908490001606C
:1027A000214601202031002D0BD0042D0BD04034C8
:1027B000082D0AD00C2D0AD0102D0AD0E07030461A
:1027C000F8BD8877FBE7C877F9E72070F7E7607016
:1027D000F5E7A070F3E70000002C014011110000A4
:1027E000004401400048014030B5124900680968C2
:1027F00088421DD11048012101700279521CD5B2C6
:1028000005714279521CD4B24471C288521C93B2F1
:102810000022C3800A2D01D302714170322C01D3F2
:10282000427181707D24E400A34201D3C280C17053
:1028300030BD0000E8060020080000207047FEE7D9
:1028400010B50648006880694005400F034802D073
:10285000FEF790FD10BDFEF7BCFD10BD4806002040
:1028600010B5806A0021826B002A00D09163C26B90
:10287000002A00D0916300F05DFD10BDF0B5044664
:102880000022CE0740342823B025002E05D06678DC
:1028900042221F46B74300D0F2228E0705D54426B8
:1028A00064783243A34300D02A43CB0B01D0B82332
:1028B0001A43102908D0202907D0402905D00068E4
:1028C000016891430160F0BD90210A43F7E70000E1
:1028D000F0B51A4F436B0022F224F4259026BB4238
:1028E00013D0174FBB4210D0164FBB420DD0CB0BAD
:1028F00000D0B822CB0700D022438B0700D52A4353
:10290000102912D0202913D013E0CB0B00D0B8220D
:10291000CB0700D022438B0700D52A43102904D0CF
:10292000202904D0402903D003E0324301E0602194
:102930000A430068016811430160F0BDB12E000830
:10294000E5300008BD2F000801688A69D24392076C
:1029500001D400228A6200688169C943C90703D093
:1029600081690122114381617047F8B5054604462B
:102970004035687828218143206804D00821C1614E
:1029800000202870F8BD8169C903CF0F8169FE233B
:102990000E0C81681E408A05C168920D19408C4654
:1029A000E168022916D10621D3090E400B409E4250
:1029B0000FD1A16C491CA164A16C0229E2D10021B4
:1029C000A1640823C361297039462046FEF78EFCB6
:1029D000F8BD66460121C9032046FFF74FFF0020DE
:1029E00028703246F0E70000F8B505460446403549
:1029F00068780026AE703D4AE2626685626C0A43E2
:102A00006264282832D0292830D02A282ED038498C
:102A10002046FFF733FF2046FFF796FF68786028CF
:102A200012D02021697020688269D24392060BD4AB
:102A30008269D243D20605D41022C261606C04229E
:102A4000104360642068C1616663206BA16B294FED
:102A5000002903D0112812D0212810D0E16B0029C1
:102A600025D0122827D0222825D020E00321204677
:102A7000FFF704FF282068701F486063E5E72068BF
:102A80000168490404D50168012292039143016061
:102A9000A06BFEF7BBF8012809D0A06B87632E70EE
:102AA000A06BFEF775F8002804D0A06B1AE0204652
:102AB00000F040FCF8BD20680168090404D50168F5
:102AC0000122D20391430160E06BFEF79FF80128D9
:102AD000EDD0E06B87632E70E06BFEF759F80028AD
:102AE000E8D0E06B816B8847F8BD00000000FFFF75
:102AF0000380000061280008E931000870B5044631
:102B00001648E06200252563202220464030064614
:102B100042708570C8436563400712D42068406ADC
:102B2000616A0870606A401C6062208D002808D0CD
:102B3000401E2085608D401E6085606C0421084326
:102B4000606407492046FFF799FE21681020C8619C
:102B500035702046FEF7BAFC70BD00000000FFFF94
:102B600003800000F8B50546009100682027C76182
:102B70002C4640346078212803D06078222806D083
:102B80000BE001212846FFF779FE112004E0022125
:102B90002846FFF773FE1220286328684168254AFB
:102BA00011404160002624486E63E8620098C043EB
:102BB000C10606D42A681021D161696C0422114330
:102BC00069646178602905D1400703D42868406AA8
:102BD000C0B200902846FFF7B7FE686C61786029A4
:102BE00001D0002804D0696C2846FFF7FDFEF8BD2F
:102BF000607821280DD060782228F8D167702E6384
:102C0000A078A67040282670284610D0FEF762FCF7
:102C1000F8BD67702E63A078A670402826702846FD
:102C200002D0FEF758FCF8BDFEF757FCF8BDFEF7E2
:102C300053FCF8BD00E800FE0000FFFF70B5002562
:102C4000064640360446B570717820202129707000
:102C50000BD012202063022120466563FFF70EFE91
:102C600035702046FEF736FC70BD1120206301212F
:102C700020466563FFF702FE35702046FEF72BFC09
:102C800070BD0000F8B50268044610680090E66A5E
:102C90000F462546403568782021D161212808D08B
:102CA000292806D022280AD02A2808D028280DD082
:102CB00013E061492046FFF7E1FD21200CE05E4969
:102CC0002046491CFFF7DAFD222005E05A4920463C
:102CD000891CFFF7D3FD0020206320684168012292
:102CE000D2031143416020684168544A1140416059
:102CF0002046FFF729FE0098C243500407D42068FD
:102D0000016801239B0399430160A06B08E0100454
:102D10000BD4206801680123DB0399430160E06B59
:102D2000002802D0006840686085F843400704210D
:102D300000280FDB20688F43406A636A1870606A5E
:102D4000401C6062208D002804D0401E2085608DCC
:102D5000401E6085608D002802D0606C084360646E
:102D6000F843C00614D4D00612D4628D1020002A75
:102D700020D02268D061606C08436064002E03D0CC
:102D800001200006864203D1616C2046FFF72CFE2D
:102D90000026AE706663606C00282AD0616C204605
:102DA000FFF722FE6878282803D139462046FFF72E
:102DB000A5FEF8BD6978282908D1012149068E426F
:102DC00004D139462046FFF799FEE1E769782929C1
:102DD0000CD101210904CE4208D02168C8612046E7
:102DE000FFF7B2FD204600F02DF8D1E72168C86159
:102DF000CEE7E06A124FB8420BD0204600F022F82E
:102E0000E7622020687026632E702046FEF75EFB86
:102E1000F8BD6878222807D02020687026632E70BD
:102E20002046FEF7ADFBF8BD2020687026632E70AB
:102E30002046FEF79BFBF8BD0180000000E800FE85
:102E40000000FFFF70B505460068016800262C46AB
:102E50004034A670C9434A0403D401680122920396
:102E600004E0090404D401680122D2039143016003
:102E70006178282029290ED061782A290AD160702A
:102E80002220286302212846FFF7F8FC26702846F6
:102E9000FEF76CFB70BD607021202863012128467D
:102EA000FFF7ECFC26702846FEF76AFB70BD0000B9
:102EB000F8B50546044640352878012817D001208A
:102EC0002870CB43DE06D043002E12DBC20610D49E
:102ED00021681020C861606C0421084360642021CF
:102EE0002046FFF7F5FC2046FFF72EFD5FE00220AD
:102EF000F8BD304A304E1F0637D4470635D4206817
:102F00000168402399430160608D00282068406873
:102F100028D08105608D890DFF2803D9FF202085E9
:102F20009B0408E0608D2085E06A904201D0E36A4E
:102F300001E001235B0600200090208DC2B22046F4
:102F400000F0E2F9608D218D401A608568782228B2
:102F50002068016802D03143016028E00122D203D9
:102F60001143F9E7800117D506E05F0618D447063C
:102F700016D4608D002804D040212046FFF734FD90
:102F800015E020684168890111D4E16A914203D1BA
:102F90004168314341600AE02046FFF74FFE06E0FA
:102FA0009A0604D4800602D42046FFF7DBFD0020F9
:102FB0002870F8BD0000FFFF00400000F8B505468E
:102FC000044640352878454E012818D00120287045
:102FD000C843C3060027D243002B12DBD30610D40C
:102FE00021681020C861606C0421084360642021BE
:102FF0002046FFF76DFC2046FFF7A6FC6BE00220A1
:10300000F8BD830708D4930706D4206D2168886231
:103010000020C04320655EE0030630D453062ED462
:1030200001212046FFF72AFC10212046FFF750FC23
:10303000608D00281ED0608DFF2803D9FF222285D5
:10304000009732E0608D2085009736E0204600F042
:103050005BF9608D218D401A608568782228206890
:10306000016802D00122920301E00122D203114340
:10307000016030E040212046FFF7B6FC2BE043061C
:1030800022D4530620D401212046FFF7F7FB10215C
:103090002046FFF71DFC6878222800D1104E608D75
:1030A000FF2807D9FF2222850096E06C012381B218
:1030B0001B06CBE7608D20850096208DC2B2E06CA8
:1030C000012381B25B06C1E7800604D4900602D4D6
:1030D0002046FFF747FD2F700020F8BD002000803C
:1030E00000240080F8B5C36A94460446054640357E
:1030F0002878002601280DD001202870CF43604693
:10310000BA06C043002A07DB820605D42046FFF733
:10311000B9FD65E00220F8BDFA065AD4C20658D4BB
:1031200047041022002F01DA070431D4E76BBC46B4
:10313000002F07D0070405D467463F687F68002F3B
:1031400000D10126A76B002F05D0400403D43868B6
:103150004068002801D0002E1DD06878282807D1AB
:1031600001204006834203D12046FFF7C7FC37E029
:10317000687829280CD101200004C34208D02068B7
:10318000C2612046FFF7E0FB2046FFF75BFE27E029
:103190002068C26124E02068C261606C0421084399
:1031A00060646878002B02D089058B4218D12128F1
:1031B00006D0292804D0222804D02A2802D003E0EF
:1031C000212000E022202063616C2046FFF70CFCE8
:1031D00006E03A0704D4000702D42046FFF7C5FBF7
:1031E00000202870F8BD0000F8B50446C06A2546E6
:1031F00040352B78012B0CD001232B70CB439E063E
:10320000D243002E07DB960605D42046FFF73AFD91
:1032100074E00220F8BD3B4EDF062FD4D7062DD434
:10322000638D1022002B0ED02168CA61616C0422CC
:1032300011436164002801D0B0425FD1616C204627
:10324000FFF7D2FB5AE06B78282B07D101235B06EE
:10325000984203D12046FFF751FC4FE069782929B5
:1032600009D101210904C84205D02068C261204665
:10327000FFF76AFB3FE02068C2613FE05F0719D4B7
:10328000570717D4618D00290CD02168496A626AFA
:103290001170616A491C6162218D491E2185618D11
:1032A000491E6185618D002928D101210904C84288
:1032B00021D123E01F0705D4170703D42046FFF7C9
:1032C00054FB1BE0990719D4910717D4618D00298D
:1032D0000DD0606A216800788862606A401C606274
:1032E000608D401E6085208D401E208506E0B04226
:1032F00001D0002802D12046FFF7A4FD002028704D
:10330000F8BD000000000001890510B5890D120408
:103310001143029C1943026821434900506849083F
:10332000630D034C234398430843506010BD0000D5
:10333000FF63FF0310B5014640314B780022602B3C
:1033400004D002630A70FEF761F810BD20234B70B1
:1033500002630A70FDF7C9FF10BD000070B52D4D66
:103360002878012801D0002070BD0020287000F0CE
:103370008DFC6878284CC0060BD500236278A178B4
:10338000A08800F093FC01236278A178A08800F067
:103390008DFC687800070BD503236278A178A0889C
:1033A00000F084FC04236278A178A08800F07EFC01
:1033B000687840070BD506236278A178A08800F0D2
:1033C00075FC07236278A178A08800F06FFC68780C
:1033D00080070BD509236278A178A08800F066FCED
:1033E0000A236278A178A08800F060FC6878C007A2
:1033F0000BD00C236278A178A08800F057FC0D2335
:103400006278A178A08800F051FC00F01BFD01203B
:1034100070BD0000060000200000002010B5104C18
:10342000E07821464A78002804D0012806D00228F6
:1034300009D111E00E236421002002E00E23642153
:10344000782000F095FCE078401CC0B2E0700228C3
:1034500001D90020E07010BD0E236421F020F0E7B8
:103460000000002010B50121022000F097FC00F0C0
:10347000E9FC10BDFFB50D4681B0FF211E46144684
:1034800069310B9FFCF711FF20460191FDF726FAE9
:10349000224900F091FEFDF7DDF904466420411B4E
:1034A00061430846FDF71AFA1D49FDF723F9FDF7B8
:1034B000D1F905463C210198FCF7F7FE0090601B0E
:1034C00048433C21FCF7F1FE009A130000F0C8FCD1
:1034D00005040910161B2100291834600A980160A0
:1034E00003E0201A30600A9804603D6005B0F0BD2A
:1034F00035600A9928180C603860F7E7211A3560A2
:103500000A98016003E0281830600A9805603C6062
:10351000ECE734600A99201A0D60EDE7333323405D
:103520000000C84208B50848816B0122114381633D
:10353000806B10400022009011460920FEF762F9CE
:103540000920FEF753F908BD00100240F0B587B01E
:1035500014216846FCF7A7FE3048416B0225294339
:103560004163416B29400591426B04210A43426348
:10357000426B0A400592416B012421434163406B39
:103580008727204005903F01052022463946000745
:10359000FDF755FE012202212148FDF750FEE00310
:1035A0003126360400906946019602941D48FDF7C5
:1035B00093FD1D480090052069460196029400077E
:1035C000FDF78AFD009703270520019402946946C0
:1035D00000070397FDF780FD0194694610480397A3
:1035E00000950294FDF778FD102000906946019641
:1035F00002940B48FDF770FD002211460520FEF7EE
:1036000001F90520FEF7F2F8002211460720FEF727
:10361000F9F80720FEF7EAF807B0F0BD0010024005
:1036200000040050000800500310000010B51448BA
:103630001249016013494160082181600121C16084
:103640000021016141618161C1610162FDF7E0FE1C
:10365000002801D0FDF727FA00210948FDF7FCFDFD
:10366000002801D0FDF71FFA00210548FDF719FEDB
:10367000002801D0FDF717FA10BD000000540040EB
:1036800048060020B57DB11010B50A480849016010
:103690003F21416000218160074A0161C260816170
:1036A000FEF7ACFC002801D0FDF7FDF910BD0000CD
:1036B00000200040E8060020E703000010B58EB0AF
:1036C00000240794089409940A940B940C941C21E8
:1036D00068460D94FCF7E7FD1F49204812C00460BE
:1036E00084604F21046141600838FEF787FC0028A0
:1036F00001D0FDF7D8F901200003079007A917486A
:10370000FEF716FD002801D0FDF7CDF91348FEF7AE
:10371000E0FE002801D0FDF7C6F90B940BA90F4875
:103720000D94FEF739FC002801D0FDF7BCF96020AC
:1037300000900420024604900194029469460748D0
:10374000FEF733FE002801D0FDF7ADF90348FEF780
:1037500005FE0EB010BD0000000400409C060020D5
:10376000FEE77047704710B5FDF7EAFF10BD30B5B2
:1037700091B034216846FCF796FD002501200D9597
:103780000E950F9540021095FEF740F80224E001D7
:10379000039000944020059008200A9080030B902D
:1037A0000794000304950C90099508946846FEF769
:1037B000EBF9002801D072B6FEE707200DA931C150
:1037C00002210DA81095FEF7EDF8002801D072B681
:1037D000FEE711B030BD704710B50248FEF71AFD84
:1037E00010BD0000E806002070B502681B4B1C4E9F
:1037F000984201D0B04203D17024A2434C682243C6
:10380000184C194D984208D0B04206D0174EB0421D
:1038100003D0A04201D0A84204D103263602B2430D
:10382000CE6832438026B2434E69324302608A68D2
:10383000C2620A688262984203D0A04201D0A842C4
:1038400001D109690163012141610169C90703D0FF
:10385000016949084900016170BD0000002C014068
:1038600000040040004401400048014000200040A6
:1038700010B5CB06DB0E0121046A99408C4304622B
:10388000016A9A401143016210BD10B5846A01219A
:10389000626A824206D12177C069002822D13E2087
:1038A00001551FE0A26A824207D102222277C06935
:1038B000002817D13F20015514E0E26A824207D167
:1038C00004222277C06900280CD14020015509E06C
:1038D000226B824206D108222277C069002801D1DA
:1038E000412001552046FEF71BFE0020207710BD29
:1038F00010B5846A616A814201D101200DE0A16A9C
:10390000814201D1022008E0E16A814201D1042014
:1039100003E0216B814201D1082020772046FEF789
:1039200007FE0020207710BD10B5846A0121626A6D
:10393000824203D121773E20015519E0A26A8242DA
:1039400004D1022020773F20015511E0E26A824233
:1039500004D1042020774020015509E0226B8242E7
:1039600004D1082020774120015501E03D20015578
:103970002046FEF74DFC0020207710BD30B584684E
:10398000FF252D021B021343AC430B4323438360EB
:1039900030BD00008268034B1A400A4307210A43E6
:1039A000826070478FFFCFFFF0B5056A026A520848
:1039B0005200026243688269164C184E22409208F7
:1039C0000C6892001443022295438A682A43124DE0
:1039D000A84204D0B04202D0114FB84206D1082705
:1039E000BA43CF681743042297433A46A84204D00B
:1039F000B04202D00A4DA84206D103252D02AB43A6
:103A00004D691D438B692B43436084614968416361
:103A10000262F0BD8FFFFEFF002C01400044014018
:103A20000048014070B5046A026A10239A4302629A
:103A300043688269164D2A4003252D02AA430D686A
:103A40002D021543202294438A6812012243114C0F
:103A5000A04207D18024A243CC68402624012243FF
:103A6000B24305E00C4CA04202D00C4CA04208D15D
:103A70000324A402A3434C69A4001C438B699B004C
:103A800023434360856149688163026270BD000021
:103A9000FF8FFFFE002C0140004401400048014020
:103AA00070B5046A026AFF2301339A4302624368D5
:103AB000C269164D2A4092080D68920015430122F2
:103AC000520294438A6812022243114CA04208D148
:103AD0001446CA68C614B443120222430415A24312
:103AE00005E00C4CA04202D00B4CA04208D10324AC
:103AF0002403A3434C6924011C438B691B0123430A
:103B00004360C5614968C163026270BD8FFFFEFFFB
:103B1000002C0140004401400048014030B5046AD7
:103B2000026A01231B039A4302624368C269114D72
:103B30002A4003252D02AA430D682D0215430122B8
:103B4000520394438A68120322430B4CA04205D0CF
:103B50000A4CA04202D00A4CA04205D10124A40381
:103B6000A3434C69A40123434360C56149680164D0
:103B7000026230BDFF8FFFFE002C01400044014077
:103B80000048014070B5036A026A01263604B24358
:103B900002624268456D0E4C25400C682C4375004E
:103BA000AB430D892D041D430A4B984205D00A4BA7
:103BB000984202D0094B984203D14B69B2431B0291
:103BC0001A434260446549688165056270BD000022
:103BD0008FFFFEFF002C01400044014000480140DF
:103BE00070B5046A026A01231B059A4302624268A7
:103BF000436D104D2B400D682D021D4301235B05C5
:103C00009C430B891E050C4B2643984205D00B4B59
:103C1000984202D00A4B984206D101241346A404CC
:103C20004A69A34392021A43426045654968C165E7
:103C3000066270BDFF8FFFFE002C01400044014072
:103C40000048014030B5036A046A640864000462F5
:103C50008469F025AC43120122430A24A3430B4399
:103C60008261036230BD30B5046A036A1025AB433C
:103C7000036283690F252D031203AB431A43A0236C
:103C80009C43090121438261016230BD10B50024CB
:103C9000002223461146104600F040F8641CE4B2AE
:103CA0000E2CF5D300F0CEF810BD000030B585B075
:103CB0001C46002302930393049303AB04AD0093CB
:103CC000019502ABFFF7D6FB302044431248211880
:103CD0000020FF31C331039A8240120601D53523FB
:103CE00000E01B2342008B52029B83401B0601D540
:103CF000352300E01B2352181382049B83401B06CC
:103D000001D5352300E01B23401CC0B213840828D2
:103D1000E1D305B030BD00002400002070B5302490
:103D20006343124C1C190023FF34C3340D469D40DD
:103D30002D0601D5352600E01B265D00665306469C
:103D40009E40360601D5352600E01B262D192E8211
:103D500016469E40360601D5352600E01B265B1C24
:103D6000DBB22E84082BE1D370BD000024000020BC
:103D7000FFB581B01D4616460F46002407E02346D6
:103D8000324639460198FFF791FF641CE4B2AC4219
:103D9000F5D300F057F805B0F0BD0000F0B5FFB066
:103DA0000E46F2B007460F21254C890101A8FCF709
:103DB0007AFA354618204543FF205130401B420017
:103DC000009030463021484301AE012F03D0022F2E
:103DD0001AD1002123E0002104E04B00E75A491CDE
:103DE000F75289B28D42F8D801192046FCF715FA2E
:103DF000002007E04100725A009909184900401C50
:103E0000625280B28542F5D87FB072B0F0BD009B9F
:103E10004F005B185B00E35A491CF35389B28D4293
:103E2000F5D800192146FCF7F8F9002004E041001C
:103E3000725A401C625280B28542F8D8E4E7000012
:103E4000E601002010B5034B034A04210348FEF7A6
:103E500071FB10BD31020000240000209C060020F0
:103E600030B47446641E2578641CAB4200D21D46F3
:103E7000635D5B00E31830BC184700008307FF2236
:103E8000DB0E9A408907090E9940002808DB830859
:103E900009489B001B181868904308431860704736
:103EA0000007000F0838830804489B001B18D869D6
:103EB00090430843D861704700E400E000ED00E063
:103EC000FDF746FCFFF753FCFFF740FBFFF72AFB2B
:103ED000FFF7F4FBFFF7AAFBFFF7D6FBFCF73CFE6E
:103EE000AA48FEF7FDF8AA48FDF77CFAFFF7CEFED8
:103EF000FFF7A8FFA74DA84C2E466036A7480178CB
:103F0000012906D1002101702078002801D1FFF796
:103F100025FA2078022802D0032811D108E0A04811
:103F2000017801290CD100210170FFF777FA07E031
:103F30009C480178012903D100210170FFF792FA12
:103F4000B07A0028DAD09348603800780300FFF791
:103F500087FF0A3D063D3E6F747F8489C53D6879C1
:103F6000C00601D5002200E0012205201021000733
:103F7000FDF765F96879000701D5002200E001220C
:103F800001210520C9020007FDF759F968794007AA
:103F900001D5002200E0012202218348FDF74FF9FC
:103FA0006879800701D5002200E001220520402128
:103FB0000007FDF744F96879C00701D0002200E04E
:103FC0000122052020210007FDF739F9CEE06879AC
:103FD000012806D0022808D003280AD00428F5D1E9
:103FE0000BE0FFF753FE002020E0FFF74FFE01201B
:103FF0001CE0FFF74BFE022018E0FFF747FE00270A
:104000003846FCF750FA694A694BFCF74FFAFCF75F
:10401000FDF980B23B4662786421FFF747FEFFF767
:1040200011FF7F1CFFB20E2FEAD3032020709DE00A
:104030006879642800D8607098E06979012906D809
:10404000A0885C4AC9071040C90D0143A1808DE0DA
:10405000A0886979000A0002F7E76879642800D827
:10406000A07083E06879000601D5FFF70FFE68793C
:10407000400601D5FFF7E6FE6879800605D50023E6
:104080006278A178A088FFF711FE6879C00605D58F
:1040900001236278A178A088FFF708FE68790007FD
:1040A00005D502236278A178A088FFF7FFFD687923
:1040B000400705D503236278A178A088FFF7F6FDB5
:1040C0006879800705D504236278A178A088FFF776
:1040D000EDFD6879C00749D0052342E06879000604
:1040E00005D506236278A178A088FFF7DFFD6879FF
:1040F000400605D507236278A178A088FFF7D6FD92
:104100006879800605D508236278A178A088FFF732
:10411000CDFD6879C00605D509236278A178A0880D
:10412000FFF7C4FD6879000705D50A236278A178F6
:10413000A088FFF7BBFD6879400705D50B2362789F
:10414000A178A088FFF7B2FD6879800705D50C2318
:104150006278A178A088FFF7A9FD6879C00705D02B
:104160000D236278A178A088FFF7A0FDB07A0949F5
:10417000401EC2B25F39B272481EFCF74EF80549C4
:10418000B27A891D481EFCF748F8B7E6E806002019
:1041900048060020F0070020000000200900002051
:1041A0000B0000200A000020000400506EDBB66DFA
:1041B000DBB63940FFFE000070B5420064414B00A1
:1041C0005C41120E39D01B0E38D0FF2A3CD0FF2B99
:1041D0003AD040024902400A490A060045184E43B7
:1041E000000A090AD2184843ED017F3A0104731A04
:1041F0004019190C4318990F04D001215B08490795
:104200005B1A521CD80904D3401CF50301D19D064A
:1042100007D0FF2A08D2D50506D0E407204340196D
:1042200070BD0125A843F4E7002A01DCE00770BD5A
:104230002402FF202043C00570BD1B0EFF2A03D0BF
:10424000FF2B01D0E00770BDFF2645003606B542C2
:1042500006D84D00B54203D8D218FF2A00D0E7E7B0
:10426000004870BD0000C07F00000000000000009A
:10427000000000000000000000000000000000003E
:10428000000000000000000001000000020000002B
:10429000030000000400000006000000070000000A
:1042A00008000000090000008182838485868788D9
:1042B000898B8C8D8E8F919293959697999A9C9DD0
:1042C0009FA0A2A3A5A7A8AAACAEB0B2B3B5B7B938
:1042D000BCBEC0C2C5C7C9CCCED1D4D7D9DCDFE201
:1042E000E6E9ECF0F3F7FAFE0843000800000020CE
:1042F00024000000040100082C43000824000020D2
:10430000B40E000020010008000A0000680100004F
:10431000000000000000000000000000010000009C
:0C43200004000000000000000024F40075
:04000005080000C12E
:00000001FF
